:020000040000FA
:1000000070F1FF1F65010000710100007301000025
:1000100000000000000000000000000000000000E0
:10002000000000000000000000000000750100005A
:1000300000000000000000007701000085030000C0
:100040007B0100007B0100007B0100007B010000C0
:100050007B0100007B0100007B0100007B010000B0
:100060007B0100007B0100007B0100007B010000A0
:100070007B0100007B0100007B0100007B01000090
:100080007B0100007B0100007B0100007B01000080
:100090007B0100007B0100007B0100007B01000070
:1000A0007B0100007B0100007B0100007B01000060
:1000B0007B0100007B0100007B0100007B01000050
:1000C00000F002F800F03EF80CA030C80838241800
:1000D0002D18A246671EAB4654465D46AC4201D180
:1000E00000F030F87E460F3E0FCCB6460126334274
:1000F00000D0FB1AA246AB4633431847D00200009B
:10010000F0020000103A02D378C878C1FAD852073A
:1001100001D330C830C101D504680C6070470000BD
:100120000023002400250026103A01D378C1FBD813
:10013000520700D330C100D50B6070471FB51FBDFB
:1001400010B510BD00F0DEF81146FFF7F7FF00F024
:1001500063FA00F0F6F803B4FFF7F2FF03BC00F017
:10016000FDF8000072B60948804762B608480047AB
:10017000FEE7FEE7FEE7FEE7FEE706480047000071
:1001800005480649044A064B70470000A5030000D5
:10019000C10000007B01000070F0FF1F70F1FF1F25
:1001A00070F0FF1F002203098B422CD3030A8B42FD
:1001B00011D300239C464EE003460B433CD400225F
:1001C00043088B4231D303098B421CD3030A8B4271
:1001D00001D394463FE0C3098B4201D3CB01C01A3F
:1001E000524183098B4201D38B01C01A524143090A
:1001F0008B4201D34B01C01A524103098B4201D3F8
:100200000B01C01A5241C3088B4201D3CB00C01A64
:10021000524183088B4201D38B00C01A52414308DC
:100220008B4201D34B00C01A5241411A00D2014601
:100230005241104670475DE0CA0F00D0494203109A
:1002400000D34042534000229C4603098B422DD3E9
:10025000030A8B4212D3FC22890112BA030A8B4291
:100260000CD3890192118B4208D3890192118B42E0
:1002700004D389013AD0921100E08909C3098B4265
:1002800001D3CB01C01A524183098B4201D38B01A8
:10029000C01A524143098B4201D34B01C01A52414B
:1002A00003098B4201D30B01C01A5241C3088B4290
:1002B00001D3CB00C01A524183088B4201D38B007B
:1002C000C01A5241D9D243088B4201D34B00C01A05
:1002D0005241411A00D20146634652415B1010461A
:1002E00001D34042002B00D54942704763465B1062
:1002F00000D3404201B50020C046C04602BD704751
:1003000070477047754600F025F8AE46050069460F
:100310005346C008C000854618B020B5FFF730FF2F
:1003200060BC00274908B6460026C0C5C0C5C0C588
:10033000C0C5C0C5C0C5C0C5C0C5403D49008D468B
:10034000704710B50446C046C0462046FFF703FF7D
:1003500010BD0000004870470CF0FF1F0149182035
:10036000ABBEFEE72600020070470000044A116899
:1003700000BF034A1268521A8242FAD37047000043
:1003800000F0FF1F05480068401C0449086004484D
:100390000068401C024908607047000000F0FF1F21
:1003A00004F0FF1F002001490860704700810440ED
:1003B00030B47446641E2578641CAB4204D3635D7C
:1003C0005B00E31830BC18471D46F8E7280700001B
:1003D00000F0FF1F0C0000000401000034070000C3
:1003E0000CF0FF1F6401000020010000000000006D
:1003F00000000000000000000000000000000000FD
:10040000FFFFFFFFFFFFFFFFFFFFFFFFFEFFFFFFFD
:1004100070B55C480078C021084000287ED159485A
:10042000407940210840002865D1564800780421D1
:10043000084000282CD1544C5248407830210840C4
:10044000002817D04F48007838210840302804D0C1
:10045000382805D103256D020BE005252D0208E0A3
:100460004848007838210840C1082020884085B2DB
:1004700000BF07E04348007838210840C108012048
:10048000884085B229462046FFF78CFE044601E0ED
:100490000124E4033B48C078E0210840C106C90EAE
:1004A000002926D140110300FFF782FF0805090D3E
:1004B0001115191D20230520C00144431AE0052011
:1004C0000002444316E00F20C001444312E005201F
:1004D000400244430EE0B720800044430AE0B720C6
:1004E000C000444306E02948444303E0284844430D
:1004F00000E000BF3BE023480079C006C00E451C69
:1005000029462148FFF74EFE04461E484079C006A2
:10051000C00E054618352046684300E001E0044659
:1005200025E018480078C0210840402816D1154819
:100530004078C007C00F002802D10124E40316E070
:100540001048007A0E21084041080120884085B2F9
:1005500029461048FFF726FE044608E009480078BF
:10056000C0210840802801D1074C00E070BD0A4836
:100570004068000F411C2046FFF714FE0749086041
:1005800000BFF3E70040064000127A009508000023
:10059000710B000000093D004080044008F0FF1F7F
:1005A00010B5002819DB1A4A03231B02D21883084E
:1005B0009B00D2588307DC0EFF23A3409A438B078E
:1005C0001B0E8407E40EA3401A43114B032424029C
:1005D0001B198408A4001A5118E00E4A03071B0FC8
:1005E000083B9B089B00D2588307DC0EFF23A340E7
:1005F0009A438B071B0E8407E40EA3401A43054B56
:100600000407240F083CA408A4001A5110BD0000E0
:1006100000E100E01CED00E0FFF7FAFE7D21C900DB
:100620003A480068FFF7BEFD0446601E384988421C
:1006300000D90CE0601E374948610321081FFFF70D
:10064000AFFF0020334988610720086100BF052003
:10065000800231498863881530498860C860304914
:100660004860304840690321890408432D494861A6
:100670002C4880304069022108432A498031486172
:1006800043E028480068012189048843254908601F
:10069000FF20F530FFF76AFE224800680121890437
:1006A000084320490860FF20F530FFF75FFE1D4832
:1006B00000680121C90488431A490860FF20F53009
:1006C000FFF754FE174800680121C9040843154983
:1006D0000860FF20F530FFF749FE124880300068BF
:1006E000022188430F4980310860FF20F530FFF771
:1006F0003DFE0C48803000680221084309498031E2
:100700000860FF20F530FFF731FEBAE708F0FF1F61
:10071000FFFFFF0000E000E00080044040A0044034
:1007200000C0044040F00F40000000000000000046
:040730000000400184
:040000050000016591
:00000001FF
